:020000040800F2
:100000002805002001010008132500087B200008B6
:100010001125000839110008892600080000000099
:10002000000000000000000000000000172500088C
:100030003B110008000000001525000819250008E4
:100040001B0100081B0100081B0100081B01000820
:100050001B0100081B0100081B0100081B01000810
:100060001B0100081B0100081B0100081B01000800
:100070001B0100081B0100081B0100081B010008F0
:100080001B0100081B0100081B0100081B010008E0
:100090001B0100081B0100081B0100081B010008D0
:1000A0001B0100081B0100081B0100081B010008C0
:1000B0001B0100081B0100081B0100081B010008B0
:1000C0001B0100081B0100081B0100081B010008A0
:1000D0001B0100081B0100081B0100081B01000890
:1000E0001B0100081B0100081B010008DFF80CD0F1
:1000F00000F092FF00480047B92F000828050020B3
:100100000648804706480047FEE7FEE7FEE7FEE7B1
:10011000FEE7FEE7FEE7FEE7FEE7FEE76B250008E9
:10012000ED0000082DE9FF4FA3B06FF00302239804
:100130002399406802908968209123990988189131
:1001400002EB8101084403902698C0081F9000F03C
:1001500084831898C008219024980168039801604E
:100160002498039950F8042F41F8042F50F8042FD5
:1001700041F8042F50F8042F41F8042F00220C926C
:1001800001921392129210920F920E920D92209D54
:10019000029C50F8042F41F8042F50F8042F41F826
:1001A000042F50F8042F41F8042F42684A600831A8
:1001B00008300391249054F8040B0B9054F804ABCE
:1001C00054F8040B089054F8049BDDF884B054F8FC
:1001D000048BBBF1000F54F8047B54F8046B00F05F
:1001E000B28200BF55F8040B009054F8040B0A903B
:1001F00000990B9800F08FFC11905046009900F088
:100200008AFC1B900099089800F085FC17904846DE
:10021000009900F080FC1A904046009900F07BFCA9
:1002200019903846009900F076FC169030460099F7
:1002300000F071FC159000990A9800F06CFC149085
:1002400055F8040B009054F8040B0B901199019889
:1002500000F009FC01901B99139800F004FC139026
:100260001799129800F0FFFB12901A99109800F05D
:10027000FAFB109019990F9800F0F5FB0F90169962
:100280000E9800F0F0FB0E9015990D9800F0EBFB26
:100290000D9014990C9800F0E6FB0C9050460099D4
:1002A00000F039FC11900099089800F034FC1B9084
:1002B0004846009900F02FFC17904046009900F046
:1002C0002AFC1A903846009900F025FC1990304617
:1002D000009900F020FC169000990A9800F01BFC91
:1002E000159000990B9800F016FC149055F8040B2B
:1002F000009054F804AB1199019800F0B4FB019000
:100300001B99139800F0AFFB13901799129800F007
:10031000AAFB12901A99109800F0A5FB1090199959
:100320000F9800F0A0FB0F9016990E9800F09BFB21
:100330000E9015990D9800F096FB0D9014990C985D
:1003400000F091FB0C900099089800F0E4FB1190EC
:100350004846009900F0DFFB1B904046009900F0F2
:10036000DAFB17903846009900F0D5FB1A9030461A
:10037000009900F0D0FB199000990A9800F0CBFB8F
:10038000169000990B9800F0C6FB15905046009906
:1003900000F0C1FB149055F8040B009054F8040BC6
:1003A00008901199019800F05EFB01901B99139839
:1003B00000F059FB13901799129800F054FB12901B
:1003C0001A99109800F04FFB109019990F9800F0AF
:1003D0004AFB0F9016990E9800F045FB0E90159968
:1003E0000D9800F040FB0D9014990C9800F03BFB29
:1003F0000C904846009900F08EFB11904046009901
:1004000000F089FB1B903846009900F084FB1790A0
:100410003046009900F07FFB1A9000990A9800F08E
:100420007AFB199000990B9800F075FB16905046D6
:10043000009900F070FB15900099089800F06BFB94
:10044000149055F8040B009054F8049B11990198EE
:1004500000F009FB01901B99139800F004FB139026
:100460001799129800F0FFFA12901A99109800F05C
:10047000FAFA109019990F9800F0F5FA0F90169962
:100480000E9800F0F0FA0E9015990D9800F0EBFA26
:100490000D9014990C9800F0E6FA0C9040460099E3
:1004A00000F039FB11903846009900F034FB1B90A6
:1004B0003046009900F02FFB179000990A9800F041
:1004C0002AFB1A9000990B9800F025FB19905046D2
:1004D000009900F020FB16900099089800F01BFB93
:1004E00015904846009900F016FB149055F8040B3F
:1004F000009054F8048B1199019800F0B4FA01901F
:100500001B99139800F0AFFA13901799129800F006
:10051000AAFA12901A99109800F0A5FA1090199959
:100520000F9800F0A0FA0F9016990E9800F09BFA21
:100530000E9015990D9800F096FA0D9014990C985C
:1005400000F091FA0C903846009900F0E4FA11900E
:100550003046009900F0DFFA1B9000990A9800F0ED
:10056000DAFA179000990B9800F0D5FA1A905046D5
:10057000009900F0D0FA19900099089800F0CBFA91
:1005800016904846009900F0C6FA1590404600992A
:1005900000F0C1FA149055F8040B009054F8047B55
:1005A0001199019800F05FFA01901B99139800F0DF
:1005B0005AFA13901799129800F055FA12901A9956
:1005C000109800F050FA109019990F9800F04BFA1B
:1005D0000F9016990E9800F046FA0E9015990D9806
:1005E00000F041FA0D9014990C9800F03CFA0C9030
:1005F0003046009900F08FFA119000990A9800F0A7
:100600008AFA1B9000990B9800F085FA17905046D3
:10061000009900F080FA1A900099089800F07BFA8F
:1006200019904846009900F076FA169040460099D5
:1006300000F071FA15903846009900F06CFA1490A9
:1006400055F8040B009054F8046B1199019800F0D0
:100650000AFA01901B99139800F005FA1390179964
:10066000129800F000FA12901A99109800F0FBF915
:10067000109019990F9800F0F6F90F9016990E98AE
:1006800000F0F1F90E9015990D9800F0ECF90D902D
:1006900014990C9800F0E7F90C9000990A9800F072
:1006A0003AFA119000990B9800F035FA1B905046D9
:1006B000009900F030FA17900099089800F02BFA92
:1006C0001A904846009900F026FA19904046009981
:1006D00000F021FA16903846009900F01CFA1590A7
:1006E0003046009900F017FA1490ABF1010B119904
:1006F000019800F0B8F901901B99139800F0B3F934
:1007000013901799129800F0AEF912901A99109858
:1007100000F0A9F9109019990F9800F0A4F90F9022
:1007200016990E9800F09FF90E9015990D9800F00B
:100730009AF90D9014990C9800F095F90C90BBF172
:10074000000F7FF44FAD189810F0070B63D000BF77
:1007500055F8040B009054F8040B0A9000990B987C
:1007600000F0D9F911905046009900F0D4F91B908F
:100770000099089800F0CFF917904846009900F0CA
:10078000CAF91A904046009900F0C5F91990384608
:10079000009900F0C0F916903046009900F0BBF9BE
:1007A000159000990A9800F0B6F9CDF82CA0DDF864
:1007B00020A0CDF82090C1461490B84637460A9E36
:1007C0001199019800F04FF901901B99139800F0CE
:1007D0004AF913901799129800F045F912901A9956
:1007E000109800F040F9109019990F9800F03BF91B
:1007F0000F9016990E9800F036F90E9015990D98F5
:1008000000F031F90D9014990C9800F02CF90C902F
:10081000BBF1010B9CD102982030029025990198E0
:1008200008602598139940F8041F129940F8041F96
:10083000109940F8041F0F9940F8041F0E9940F8D2
:10084000041F0D9940F8041F0C9941600830259051
:100850001F98401E1F907FF47FAC269810F0070869
:1008600050D0249800250168039801602498209EA8
:10087000001D24900398029C001D0390DDF86090F9
:100880003168206800F047F9294600F0ECF8371D80
:10089000261D0546B9F1010429D0B4F1004F7DD2DF
:1008A000002C24DD361F3F1F14F0010F09D057F82C
:1008B000041F56F8040F00F02EF9294600F0D3F873
:1008C0000546641013D07968706800F024F9294651
:1008D00000F0C9F8054657F8081F56F8080F00F051
:1008E0001AF9294600F0BFF80546641EEBD1259899
:1008F00005602598001D25900298001D0290B8F112
:100900000108AED12398189940684C1EA30820D046
:10091000B3F1004F56D2002B1BDD029A01469C46D4
:1009200052F8045B41F8045B52F8045B41F8045B45
:1009300052F8085B41F8085B52F8045C41F8045C2B
:10094000BCF1010CECD1029900EB031001EB031197
:10095000029114F0030104BF27B0BDE8F08FB1F19C
:10096000004F44D20029DCBF27B0BDE8F08F031F41
:10097000029A121F11F0010F03D052F8040F43F82E
:10098000040F480804BF27B0BDE8F08F51685960D4
:1009900052F8081F43F8081F401E00E003E0F5D19D
:1009A00027B0BDE8F08F3968306800F0B4F8294608
:1009B00000F059F80546641E06F1040607F1040725
:1009C000F1D194E70299096840F8041B029951F8A3
:1009D000042F40F8042B51F8042F40F8042B4A68E8
:1009E000083140F8042B02915B1EEBD1B1E7029A6B
:1009F000126840F8042B029A121D0292491EF6D189
:100A000027B0BDE8F08F70B50446049821800844F3
:100A10008000011F1D461846A26000F019F86560AD
:100A200070BD202A04DB203A21FA02F00021704731
:100A300021FA02F3D040C2F1200291400843194646
:100A40007047D2B201E000F8012B491EFBD270477B
:100A50000022F6E710B513460A4604461946FFF78A
:100A6000F0FF204610BDF0B480EA0102D40F42002E
:100A7000B2EB410F02D20246084611464A0042D06C
:100A8000C30DDDB2C1F3C752AD1A202D35DAC1F363
:100A9000160141F4000204B15242C5F1200602FAE7
:100AA00006F12A411044B3EBD05F23D0C4B1012D2D
:100AB000A0EBC35009DCF0BC4FF0004202EAC35285
:100AC000DBB200F5000000F0C0B8400000F180701B
:100AD00000EBC350A0F1807040EAD170490009E0FA
:100AE000490841EAC071A0EBC35000F5000040087E
:100AF00000EBC350F0BC00F09FB86142012202EB52
:100B00004101001BF6E7F0BC704781F00041AAE705
:100B100080F00040A7E780EA010210B502F0004330
:100B2000400022D04A001FD0010E01EB1261C0F339
:100B30005600C2F3560240F4000042F40002A0FB4B
:100B4000022000047F39140400D0401C50EA1240F7
:100B500001D44000491EC2B20C0604EBD010401C68
:100B60004008802A02D003E0002010BD20F00100E0
:100B7000002900DA0020184310BD962300221146F8
:100B800000F063B800F0004230F000400AD0C10D20
:100B900001F56071C0F3160042EA0151C208400736
:100BA0001143704700200146704730B50B4601469F
:100BB00000202022012409E021FA02F59D4205D3FC
:100BC00003FA02F5491B04FA02F52844151EA2F1A6
:100BD0000102F1DC30BD2DE9F05F054600209246B0
:100BE0009B4688460646814640241BE028464146EF
:100BF00047462246FFF715FF53465A46C01A914111
:100C000010D311461846224600F018FA2D1A67EB49
:100C100001084F4622460120002100F00FFA17EB91
:100C200000094E41201EA4F10104DFDC4846314694
:100C30002A464346BDE8F09F0029A8BF7047401CE4
:100C4000490008BF20F00100704710B4B0FA80FCE2
:100C500000FA0CF050EA010404BF10BC704749B11F
:100C6000CCF1200421FA04F411FA0CF118BF01218F
:100C700021430843A3EB0C01CB1D4FEA00614FEA6F
:100C8000102042BF002010BC704700EBC35010443E
:100C90000029A4BF10BC7047401C490008BF20F0C9
:100CA000010010BC70472DE9FE4F804681EA030029
:100CB000C00F0C46009021F0004123F00045B8EB36
:100CC0000200A94105D24046214690461C460B46EB
:100CD000024623F00040104347D0270DC7F30A0017
:100CE000C3F30A510290401A019040286BDAC3F313
:100CF000130040F4801B0098924620B10023D2EBF1
:100D0000030A63EB0B0B01985946C0F140025046B1
:100D100000F094F906460D4650465946019A00F0F7
:100D20009CF910EB08006141002487EA115284EA23
:100D3000E7731A4340D0009A62B3019A012A4FEA3E
:100D4000075215DC001B61EB02014FF0004202EA82
:100D50000752CDE90042001C41F5801132462B4676
:100D600000F09CF903B0BDE8F08F40462146F9E75A
:100D7000001B61EB0201001C41F5801300185B4170
:100D80002018A2F5001747EB030140EAD570B61909
:100D90006D4111E06D084FEA360645EAC0754FEA2D
:100DA0000752001B61EB0201001C41F5801149084C
:100DB0004FEA30000019514132462B4603B0BDE8DE
:100DC000F04F00F05CB90098012240000023D0EB06
:100DD000020263EBE073009821464FEAE074B8EB3F
:100DE000000061EB0401E9E783F000435BE781F079
:100DF000004158E72DE9FE4F81EA030404F0004466
:100E000021F0004100944FF0000B23F0004350EA22
:100E100001045ED052EA03045BD0C3F30A54C1F369
:100E20000A552C44A4F2F3340194A0FB0254C1F3FC
:100E3000130141F48011C3F3130343F4801301FB46
:100E4000024400FB034E840A970A44EA815447EAAD
:100E50008357A4FB076802958D0A05FB07854FEAB7
:100E6000932C04FB0C542705029D4FEA065847EAD1
:100E70001637B5EB08056EEB070C870E920E47EAA6
:100E8000811742EA8312A7FB0201B6EB0B0164EB68
:100E900000042B0D43EA0C335E1844EB1C50DA4679
:100EA0005146E7FB0201C5F313044FEA0B3343EA53
:100EB00014534FEA0432019C43EA0603A4F10C04E4
:100EC0000294009CCDE900B400F0E8F803B0BDE85E
:100ED000F08F00200146F9E72DE9F04D81EA030487
:100EE00004F0004B21F0004514464FF0000A23F0B7
:100EF000004150EA050220D054EA01021DD0C5F39A
:100F00000A570246C5F31303C1F31300C1F30A568F
:100F100040F4801543F48013A7EB0608101BD64657
:100F200008F2FD3873EB050002D308F1010801E077
:100F300092185B41B8F1000F03DA00200146BDE8CA
:100F4000F08D00204FF48011064684460EE0171BFA
:100F500073EB050705D3121B63EB050306434CEA4D
:100F6000010C49084FEA300092185B4150EA010732
:100F7000EDD152EA030012D082EA040083EA0501AF
:100F8000084305D0101BAB4106D20122002306E026
:100F900000224FF0004302E06FF0010253101AEB01
:100FA00006004CEB085110EB0A0041EB0B01BDE8C9
:100FB000F04D00F064B8C1F30A52C1F3130140F2DE
:100FC000FF3341F480119A4202DA00200146704753
:100FD00040F233439A42A2F2334202DC5242FFF71C
:100FE00020BD00F02BB8000030B5041E71F10004E4
:100FF00004DB4FF00044404264EB0101141E73F126
:10100000000405DB1C464FF00043524263EB04032F
:10101000994208BF904230BD064C074D06E0E0689B
:1010200040F0010394E8070098471034AC42F6D32F
:10103000FFF760F8F031000810320008202A04DBC6
:10104000203A00FA02F1002070479140C2F12003DB
:1010500020FA03F3194390407047202A06DBCB1790
:10106000203A41FA02F043EAE07306E041FA02F363
:10107000D040C2F12002914008431946704710B594
:10108000141E73F1000408DA401C41F100019218AB
:101090005B411A4301D120F0010010BD2DE9F04D54
:1010A00092469B4611B1B1FA81F202E0B0FA80F2A9
:1010B00020329046FFF7C2FF04460F4640EA0A007E
:1010C00041EA0B0153465A46084313D0114653EAEE
:1010D000010019D0C8F140025046FFF7A2FC0546B6
:1010E0000E46504659464246FFF7A8FF084305D032
:1010F000012004E020463946BDE8F08D002005437C
:1011000046EAE0762C4337430A986305E40AA0EBED
:1011100008000022FD0A44EA47540A3002D50020A4
:101120000146E9E7010510196941DDE908450019A3
:101130006941BDE8F04DA2E7FEE770477047000047
:1011400070B5044600F0FEF80546601C02D0044865
:101150000078044400F0F6F8401BA042FAD370BDBA
:10116000080000202DE9F84FDFF8B891002409F1BC
:10117000040A0AF1040B23460F270BF1040EC9E001
:101180000125A5402A40AA427DD1674ED1F804C06E
:10119000ACEB0608B44532D014DCBCF1030F3AD0F6
:1011A00009DCBCF1000F2AD0BCF1010F1CD0BCF14E
:1011B000020F31D11DE0BCF1110F17D0BCF1120F9D
:1011C0002AD119E0B8F5881F19D006DCB8F5803FA0
:1011D00015D0B8F5801F1FD111E0B8F5001F0ED053
:1011E000B8F5041F18D10AE0CB6815E0CB681B1DC9
:1011F00012E0CB6808330FE0CB680C330CE08B684F
:101200002BB1012B4FF0080303D0456104E0042308
:1012100002E0056100E00023FF2A01D8064601E054
:1012200000F104064FEA840501D9A5F12005D6F89E
:10123000008007FA05FC28EA0C0803FA05F548EADD
:101240000508C6F800804D68ED0062D5374DAE69DF
:1012500046F00106AE61AD6924F0030605F0010514
:101260000095334D06EB050CDCF80850A607360F49
:1012700007FA06F825EA0805DFF8B880404503D1EB
:101280004FF0000817E044E0DFF8AC80404502D1A1
:101290004FF001080FE0DFF8A480404502D14FF085
:1012A000020808E0DFF89880404502D14FF00308BB
:1012B00001E04FF0040808FA06F848EA0508CCF8FF
:1012C00008804D68D9F80060ED034D4601D51643FE
:1012D00000E096432E604D68DAF80060AD03554695
:1012E00001D5164300E096432E604D68DBF80060A0
:1012F000ED025D4601D5164300E096432E604D6831
:10130000DEF80060AD02754601D5164300E0964355
:101310002E60641C0D682A46E5407FF431AFBDE8BD
:10132000F88F00000004014000001110001002407E
:101330000000014000080140000C01400010014085
:101340000014014001488068704700000800002038
:1013500070B5040025D094F83D00002520B984F82C
:101360003C50204600F070FA242084F83D002068AC
:10137000016821F0010101602068016841F4004129
:1013800001602068016821F40041016000F0B8FBB1
:101390004D4A6168914201D84C4900E04C4988426D
:1013A00001D2012070BD4B492368B0FBF1F15E68AA
:1013B00026F03F060E435E606368934206D94FF401
:1013C000967359434FF47A73B1FBF3F12368491CC8
:1013D0001E6A26F03F06314319626168914210D8B7
:1013E0004900401EB0FBF1F2521CC2F30B02042A6A
:1013F00001D2042022E0B0FBF1F0401CC0F30B004E
:101400001CE0A268F2B301EBC10303EB0116431E1B
:10141000B3FBF6F35B1C43F480431B0549D092B346
:1014200001EBC10202EB0111401EB0FBF1F0401CC8
:10143000C0F30B0040F4804040F400402168CA69CA
:101440004CF6FF739A431043C861D4E90710014377
:101450002068026822F0C00211430160D4E9030150
:1014600001432068826848F2FF339A431143816048
:10147000D4E9050108432168CA6822F0FF0210433D
:10148000C86001E00EE016E02068016841F001014B
:1014900001602564202084F83D00256384F83E50D7
:1014A000002070BD01EB4106431EB3FBF6F35B1C4D
:1014B000B3E70120C2E701EB4101401EB0FBF1F0B0
:1014C000401CC0F30B00B7E7A086010080841E001B
:1014D00000093D0040420F002DE9F84F0025DDF8DE
:1014E0002890984617468A4604460095FFF72AFF3B
:1014F000064694F83D0020287AD119230122834919
:101500002046009600F0BCFE0028F5D194F83C007F
:1015100001286DD0012084F83C0020680168C907CB
:1015200003D1016841F0010101602068016821F4E4
:1015300000610160222084F83D00102084F83E0004
:1015400025646762A4F82A80608D20857048E06277
:1015500033464A465146204600F0A8FD00287DD17A
:10156000208DDFF8B081202768B1012814D002282F
:10157000206801681ED041F48061016020684169E3
:1015800080690090B5E02068416981690091016837
:1015900041F400710160ACE02068016821F48061D1
:1015A000016072B62068416981690091016841F467
:1015B00000710AE041F40061016072B6206841697F
:1015C00081690091016821F48061016062B690E058
:1015D000032868D801280CD002284B464FF000029F
:1015E0004146204600960FD000F04AFEB0BB10E006
:1015F0008AE032464946204600F0C1FE70BB2068B2
:101600000069616A08706BE000F03AFE30BB72B6A8
:1016100034E02068016821F48061016072B62068BE
:101620000069616A0870606A401C6062208D401E1B
:101630002085608D401E6085374846F2A8110068FD
:10164000B0FBF1F0C0EBC00000EB80000090401E4A
:10165000009008D020684069C04300E029E04007BE
:101660000CD50098F3E744F8305F6773A5732069E1
:1016700040F02000206162B625731AE020680168FE
:1016800041F40071016020680069616A0870606A55
:10169000401C6062218D491E2185618D491E618536
:1016A00062B621681AE032464946204600F067FEDD
:1016B00010B10120BDE8F88F20680069616A0870E8
:1016C000606A401C6062218D491E2185618D491E22
:1016D000618521684A69D24352070AD409690170B9
:1016E000606A401C6062208D401E2085608D401E17
:1016F0006085208D00287FF46BAF84F83D7084F8FE
:101700003E5084F83C50D5E70220D3E70200100099
:101710000000FFFF04000100140000202DE9F84F35
:101720001F4690468A460446DDF82890FFF70AFED9
:10173000054694F83D0020287FD119230122404915
:101740002046009500F09CFD002876D194F83C00DE
:10175000012872D0012084F83C0020680168C90784
:1017600003D1016841F0010101602068016821F4A2
:1017700000610160212084F83D00102084F83E00C3
:1017800000262664C4F824806785608D20852D4856
:10179000E0622B464A465146204600F0FDFC90B9D7
:1017A000206841698069009036E02A464946204613
:1017B00000F018FE50B1206C042804D120680168A4
:1017C00041F4007101600120BDE8F88F606A216872
:1017D00000780861606A401C6062618D491E618505
:1017E000218D491E89B2218522685369DB435B073D
:1017F0000BD451B100781061606A401C6062608D4A
:10180000401E6085208D401E20852A464946204680
:1018100000F010FD0028CED1208D0028C5D154F84D
:101820003D0B016841F400710160202004F81E099D
:10183000E67766770020C7E7FFE70220C4E70000ED
:10184000020010000000FFFF10B586B000210091DB
:1018500001910291039100680F4988421AD10F4CFF
:10186000A06940F00800A061A069694600F0080086
:101870000490C0200090122001900320039008489B
:10188000FFF770FCE06940F40010E061E06900F4EB
:101890000010049006B010BD00540040001002403B
:1018A000000C014002488168027811448160704751
:1018B00008000020074810B5016841F010010160E0
:1018C000032000F075F8002000F006F800F024F87E
:1018D000002010BD0020024070B50D4D04464FF4AD
:1018E0007A712878B1FBF0F00A490968B1FBF0F091
:1018F00000F0ECFA48B9102C07D200222146501E05
:1019000000F036F800206C6070BD012070BD000052
:1019100008000020140000200C4808B5816941F03F
:1019200001018161816901F001010091C16941F00A
:101930008051C161C06900F0805000900448416846
:1019400021F0E06141F00071416008BD00100240EB
:1019500000000140002809DB00F01F020121914036
:101960004009800000F1E020C0F80011704700003D
:10197000F0B40E4B1B680C46C3F30223C3F10705FA
:10198000042D00D90425191D072901D2002300E0E8
:10199000DB1E012606FA05F1491E214099409E40B2
:1019A000761E16403143F0BC00F080BE0CED00E026
:1019B000064900F0070208684FF6FF03184040EAA6
:1019C0000220034A10430860704700000CED00E05D
:1019D0000000FA052DE9F0470F46050061D0434E9F
:1019E000306800F00700B84209D2306820F00700E4
:1019F00038433060306800F00700B84251D12868A1
:101A00003B4C810712D5400703D5606840F4E06085
:101A100060602878000703D5606840F4605060601B
:101A20006068A96820F0F000084360602878C0076B
:101A300028D06868012810D02168022810D08907B2
:101A400000292EDA616821F0030101436160FFF78C
:101A500079FC804641F288390DE021688903EFE77F
:101A60008901EDE7FFF76EFCA0EB0801494502D9BB
:101A70000320BDE8F0876068696800F00C00B0EBF7
:101A8000810FEFD1306800F00700B8420BD9306801
:101A900020F0070038433060306800F00700B8429B
:101AA00001D00120E5E72878400705D56068E9689E
:101AB00020F4E060084360602878000706D560687D
:101AC000296920F4605040EAC100606000F038F8F5
:101AD0006168084AC1F30311515CC84006490860B7
:101AE00006480068FFF7F8FE0020C2E70020024029
:101AF00000100240D8310008140000200C00002023
:101B00000448054900684968044AC1F30221515C50
:101B1000C84070471400002000100240E83100085F
:101B20000448054900684968044AC1F3C221515C70
:101B3000C84070471400002000100240E83100083F
:101B400012A185B00FC98DE80F0014A0144A0068D7
:101B500004905168134801F00C03042B10D0082B9B
:101B60000ED1C1F38343C9031DF803000AD55168A0
:101B700004AAC1F34041515C0A4A5043B0FBF1F062
:101B800005B0704708494843FAE70000020304051E
:101B9000060708090A0B0C0D0E0F101001020000B9
:101BA0000010024000127A0000093D002DE9F84FB4
:101BB000040070D02078C04DC00749D06868C0F3D9
:101BC0008100012807D06868C0F38100022809D18C
:101BD0006868C00306D52868800339D56068002886
:101BE000E7D035E06068B0F5803F0BD010B1B0F5BC
:101BF000A02F11D0286820F480302860286820F4B5
:101C0000802002E0286840F480302860606890B14D
:101C1000FFF798FB06460AE0286840F48020286019
:101C2000F0E700BFFFF78EFB801B642873D828689D
:101C30008003F7D50CE0FFF785FB064605E000BF03
:101C4000FFF780FB801B6428F0D828688003F7D456
:101C500020789A4E80074FF001094FF0000839D5DF
:101C6000686810F00C0F07D06868C0F38100022884
:101C700009D16868C00306D42868800714D5206994
:101C8000012808D110E02069B0B1C6F80090FFF734
:101C900059FB074605E00AE1FFF754FBC01B022889
:101CA000C4D828688007F7D52868616920F0F80053
:101CB00040EAC10028600DE0C6F80080FFF742FB53
:101CC000074604E0FFF73EFBC01B022823D8286824
:101CD0008007F7D4207800072CD57948A169D9B1BD
:101CE000C0F80090FFF72EFB074604E0FFF72AFB41
:101CF000C01B02280FD8686A8007F7D571484FF4D7
:101D0000FA510068B0FBF1F0009000BF0098411E4E
:101D10000091FAD20EE080E0C0F80080FFF712FBDD
:101D2000074604E0FFF70EFBC01B022875D8686A5F
:101D30008007F7D42078400760D5E8690027C00005
:101D400008D4E86940F08050E861E869012700F0B4
:101D5000805000905C480168C90513D4016883462F
:101D600041F480710160FFF7EDFA824606E000BFA2
:101D7000FFF7E8FAA0EB0A0064284ED8DBF8000071
:101D8000C005F5D5E06801280AD008B1052813D0B0
:101D9000286A20F001002862286A20F0040002E08E
:101DA000286A40F001002862E06841F2883B98B15F
:101DB000FFF7C8FA82460BE0286A40F00400286268
:101DC000EEE700BFFFF7BEFAA0EB0A0159455AD86B
:101DD000286A8007F6D50CE0FFF7B4FA824605E0E2
:101DE000FFF7B0FAA0EB0A0159454CD8286A8007E2
:101DF000F6D41FB1E86920F08050E861E06988B34B
:101E00006968C1F38101022944D00228C6F86080C4
:101E100004D0FFF797FA044638E034E0FFF792FA6F
:101E2000074604E0FFF78EFAC01B02282BD828686B
:101E30008001F7D4206AB0F5803F05D16868A168B9
:101E400020F4003008436860D4E908010843696859
:101E500021F4741108436860C6F86090FFF772FAC5
:101E6000044606E025E000BFFFF76CFA001B0228DD
:101E700009D828688001F7D51BE000BFFFF762FA98
:101E8000001B022802D90320BDE8F88F28688001D2
:101E9000F4D40EE00128F7D06868226A00F480319B
:101EA000914204D1616A00F47010884201D001208F
:101EB000EAE70020E8E7000000100240000042428C
:101EC00080044242140000200070004010B5401E03
:101ED000B0F1807F01D3012010BD4FF0E02460619C
:101EE0000F21601700F0E2FB0020A06107202061B5
:101EF000002010BD70B5040004D094F83D0000250A
:101F000010B106E0012070BD84F83C50204600F07E
:101F100023F8242084F83D002068C16821F4005192
:101F2000C160204600F022FB2068016921F4904145
:101F300001612068416921F02A0141612068C1687E
:101F400041F40051C1602564202084F83D0084F8EC
:101F50003E00002070BD000030B585B00024009424
:101F600001940294039400681449884224D11448CF
:101F7000816941F480418161816901F4804104916A
:101F8000816941F00401816180690E4D00F0040017
:101F900004904FF400700090022001900320039001
:101FA00069462846FFF7DEF82815CDE900046946A2
:101FB00028460294FFF7D6F805B030BD003801403E
:101FC00000100240000801402DE9F843044690F853
:101FD0003D001F4616460D4620284CD1C5B1BEB166
:101FE00094F83C00012846D0012084F83C004FF0D2
:101FF0000008C4F84080212084F83D00FFF7A2F9D2
:10200000A6848146E684A068B0F5805F03D004E032
:102010000120BDE8F883206928B12E465FF0000555
:1020200084F83C800EE00026FAE78021204600F08C
:10203000F9FAA0B9AEB116F8010B21684860E08C3E
:10204000401EE084E08C4B464FF0000200970028D1
:10205000EBD14FF04001204600F0E4FA30B103200C
:10206000D7E735F8020BC0F30800E6E7202084F834
:102070003D000020CDE70220CBE7FEE701684A697A
:10208000D24352050FD46FF480624A61002140F8B8
:10209000301F202242738173026942F00402026100
:1020A0000173012070470020704700002DE9F84FB0
:1020B0000446C06A1E4693460D4621680A6842F4EB
:1020C00080620A60082807D0012805D010F5803FFB
:1020D00002D0206B112804D12068016841F480717E
:1020E00001604FF001195B460022494620460096E8
:1020F00000F0C6F84FF4007840B120680068C005D1
:1021000001D5C4F840800320BDE8F88F2069DFF8CE
:1021100084A0B0F5804F0FD00620216800EAD517C3
:1021200047F0F000086133465A460AF1060120469E
:1021300000F0DAF858BB03E0E8B240F001001CE020
:102140002168E8B2086133465A465146204600F0FD
:10215000CBF8E0B92068416981690091016841F4D8
:10216000807101605B46002249462046009600F0DF
:1021700087F80028C1D147F0F10021680861334693
:102180005A465146204600F0AFF80028BCD0012046
:10219000BAE7000002000100F8B50446C06A1E4616
:1021A0000D461746082807D0012805D010F5803FB6
:1021B00002D0206B122804D12068016841F480719C
:1021C0000160134600224FF001112046009600F0F6
:1021D00057F840B120680068C00502D54FF4007080
:1021E00020640320F8BD2069B0F5804F0ED0062092
:1021F000216800EAD51040F0F000086133463A4605
:102200000B49204600F070F878B902E005F0FE00B6
:1022100000E0E8B221680861054933463A46891F63
:10222000204600F061F80028DCD00120F8BD000055
:102230000800010070B516460D4604460DE0204624
:10224000FFF71CFF08B1012070BD681C05D0FFF727
:1022500079F8801BA84207D835B120684069C0438F
:102260004007ECD4002070BD002044F8300F20213E
:102270006173A073216941F0200121612073E2E7BD
:102280002DE9F0471E4690460D460446C1F3074728
:10229000DDF8209008E0701C06D0FFF753F8A0EBA3
:1022A0000900B0420FD876B12068012F18D080699C
:1022B00025EA00000004000C14D000214145EAD0BA
:1022C0000020BDE8F087002044F8300F2021617322
:1022D000A073216941F02001216120730120F0E702
:1022E0004069E5E70121E9E72DE9F0479A46914683
:1022F0000E46044600254FF02008C1F3074725E0AD
:1023000020684069C043400514D42068016841F446
:102310000071016021686FF480604861256384F872
:102320003D8084F83E50206C40F00400206484F826
:102330003C501FE0B9F1FF3F08D0FFF703F8A0EBD6
:102340000A0149450CD8B9F1000F09D02068012FC6
:1023500013D0806926EA00000004000C0BD0CFE700
:1023600044F8305F84F80D80A573206940F02000A8
:10237000206125730120BDE8F0874069EAE72DE977
:10238000F041002590460E460446202717E040699C
:10239000C043C0060CD454F8301B6FF010004861E5
:1023A00044F810596777A577206A2062257717E0EF
:1023B000FEF7C8FFA0EB0800B04208D83EB1206885
:1023C0004169C9434906E2D40020BDE8F08144F8E0
:1023D000305F6773A573206940F02000206125738A
:1023E0000120F2E770B516460D4604460DE0204682
:1023F000FFF744FE08B1012070BD681C05D0FEF750
:10240000A1FF801BA84207D835B120684069C043AE
:102410000006ECD4002070BD002044F8300F2021CD
:102420006173A073216941F0200121612073E2E70B
:1024300000B585B000200190029003901448816996
:1024400041F020018161816901F0200104918169DD
:1024500041F004018161816901F004010491816905
:1024600041F0080181618069694600F0080004902C
:102470004FF4807000900748FEF774FE002201219F
:102480001720FFF775FA1720FFF764FA05B000BDB3
:1024900000100240000801400D4810B50B490160D2
:1024A0000C49416000214FF480428160C0E9031271
:1024B00041618161C1610162FEF74AFF002803D0DA
:1024C000BDE81040FEF73ABE10BD000000540040C9
:1024D00090000020A08601000C4810B50A49016058
:1024E0004FF4E1314160002181600C22C160C0E9FC
:1024F00004128161C161FFF7FDFC002803D0BDE833
:102500001040FEF71BBE10BD00380140E400002063
:10251000FEE7704770477047FFF7C4B930B58FB01A
:1025200028216846FEF794FA14210AA8FEF790FACB
:1025300001210804CDE90010002402940225049131
:10254000CDE907504FF4E01009906846FFF72EFBE5
:102550000F20CDE90A056802CDE90C4002210AA846
:102560000E94FFF737FA0FB030BD704770B50446D0
:1025700000680169E26821F4405111430161216959
:10258000A0680843616908432168CA6841F20C6386
:102590009A430243CA6020684169A26921F44071EC
:1025A000114341611E492068884202D1FFF7B8FA01
:1025B00001E0FFF7A5FA00EBC00101EB0012606833
:1025C00064218000B2FBF0F3B3FBF1F36FF0180667
:1025D0007343B2FBF0F5B2FBF0F605EB8305322353
:1025E00003EB0515B5FBF1F5B6FBF1F605F0F005CB
:1025F00005EB0615B2FBF0F6B2FBF0F0B0FBF1F024
:102600006FF01802504306EB800003EB0010B0FBA4
:10261000F1F0216800F00F002844886070BD0000D0
:10262000003801402DE9F041984617460E46044611
:10263000069D1DE0681C1BD02DB1FEF783FEA0EBAC
:102640000800A84214D92068C16821F4D071C16083
:102650002068416921F001014161202084F83D009A
:1026600084F83E00002084F83C000320BDE8F0819F
:102670002068006836EA000004D00020B842D9D0B3
:102680000020F3E70120F9E7FEE700000FB4054B57
:1026900010B503A9044A029800F0EAF810BC5DF8EE
:1026A00014FB0000A12F0008180000200907090EE4
:1026B000002804DB00F1E02080F80014704700F0EF
:1026C0000F0000F1E02080F8141D704702E008C8F8
:1026D000121F08C1002AFAD170477047002001E09C
:1026E00001C1121F002AFBD1704700002DE9FF5FD6
:1026F00082B00021DDE90430020DDDF840B0034373
:1027000018D044F61050A2F2FF324243151411982B
:1027100001281FD0A5EB0B00401C5FEA000A4FF018
:1027200000064E4FDFF83891B046504615D5CAF135
:10273000000413E0119801244AA3012801D16FEA93
:102740000B010298119AC0E90031C0E9024206B0BB
:10275000BDE8F09FCBF10000DFE704460021404ACE
:10276000491842EB0450CDE9001012E0E00707D011
:1027700032463B4640464946FEF73CFB804689468A
:1027800032463B4610461946FEF734FB06460F46D6
:102790006410002CEAD1DDE90401DDE90023BAF17F
:1027A000000F06DAFEF726FB42464B46FEF722FBF9
:1027B00005E0FEF791FB42464B46FEF78DFB0446D3
:1027C0000E460022284BFEF70FFC03D84FF0FF30D7
:1027D000014607E00022254B20463146FEF763FA0A
:1027E000FEF7E9FB102409E0002C0ADB0A22002393
:1027F000FEF7F1F9039B30321A55641E50EA0102CC
:10280000F2D1641C039AC4F111031444119A012AF1
:1028100003D0012208430DD10AE0084304D0002070
:102820004FF0110B119072E7A3EB0B056D1E0DE03D
:102830005B4504DD4FF0000205F1010504E003DA19
:102840004FF00002A5F10105002AECD00298119981
:10285000C0E90231C0E9004579E7000000001440FA
:102860000000F03F300000000000F0430000E03FB7
:102870002DE9FF4F95B09B468946064600250FE29D
:10288000252877D100242746F84A0121059400E045
:10289000044316F8013F203B01FA03F01042F7D140
:1028A00030782A2811D06FF02F033078A0F1300251
:1028B000092A16D8059A44F0020402EB820203EBBF
:1028C00042021044761C0590EFE759F8042B05925C
:1028D000002A03DA504244F40054059044F0020404
:1028E000761C30782E2816D116F8010F44F0040417
:1028F0002A280DD06FF02F023078A0F13003092B79
:1029000009D807EB870302EB4303C718761CF3E7EC
:1029100059F8047B761C30786C280FD006DC4C28E4
:1029200017D068280DD06A2814D104E0742810D07C
:102930007A280FD10DE044F400140AE044F4801426
:1029400001E044F440147278824202D104F580140C
:10295000761C761C307866280BD013DC582877D08C
:1029600009DC002875D04528F6D04628F4D0472841
:102970001AD19DE118E0632835D0642879D0652804
:1029800012D195E1702873D008DC6728F1D069284E
:102990006FD06E280DD06F2806D1B5E073282CD0EB
:1029A000752875D0782874D05A46179990476D1CB1
:1029B00075E1C4F30250022809D003280DD0D9F8DC
:1029C000001004280DD00D6009F1040967E1D9F861
:1029D0000010EA17C1E90052F6E7D9F800100D809F
:1029E000F2E70D70F0E719F8041B8DF800100020D5
:1029F0008DF80100EA46012003E059F804AB4FF0DE
:102A0000FF3061074FF0000102D40DE008F1010131
:102A10008846B9420FDA8045F8DB1AF80810002919
:102A2000F4D108E008F1010188468142FADB1AF886
:102A300008100029F6D105985B46A0EB080721464F
:102A40003846179A00F094FA284400EB080507E08E
:102A50004DE029E10DE01AF8010B5A46179990470D
:102A6000B8F10108F7D25B4621463846179A13E1C0
:102A700042E00A220092C4F302524FF0000A022AF6
:102A800008D059F804CB032A4FEAEC710AD00DE0C4
:102A900029E02AE009F1070121F00702F2E802C16A
:102AA000914609E00FFA8CFC4FEAEC71042A03D13D
:102AB0004FFA8CFC4FEAEC71002907DA0A46002134
:102AC000DCF1000C61EB02012D2202E0220504D5AD
:102AD0002B228DF80420012203E0E20701D02022FE
:102AE000F7E7904659E00A2102E010220DE010219C
:102AF0004FF0000A00910BE010224FF0000A44F062
:102B000004040827009203E008224FF0000A009214
:102B1000C4F30252022A05D059F804CB0021032A3B
:102B200008D009E009F1070121F00702F2E802C12B
:102B3000914605E01FFA8CFC042A01D10CF0FF0C31
:102B40004FF00008220728D5702806D0009B83F09C
:102B5000100353EA0A0305D00EE040228DF804204A
:102B6000012208E05CEA010206D030228DF8042040
:102B70008DF8050002229046009B83F0080353EA7B
:102B80000A030AD15CEA010201D1620705D53022AD
:102B90008DF804204FF001087F1E582804D034A07F
:102BA00003900EA802900DE036A0F9E75346604668
:102BB000009AFEF710F884460398825C0298401E43
:102BC000029002705CEA0100F0D1029806A9081A8E
:102BD00000F1200A600702D524F4803400E00127C8
:102BE000574502DDA7EB0A0000E0002000EB0A01D8
:102BF000009005984144401A0590E00306D45B46D6
:102C00002146179A059800F0B3F90544002706E01D
:102C100001A85A46C05D179990476D1C7F1C474517
:102C2000F6DBE0030CD55B462146179A059800F0C9
:102C30009FF9054404E030205A46179990476D1CCF
:102C40000099481E00900029F5DC08E002980299DE
:102C50005A460078491C0291179990476D1CBAF1A9
:102C60000001AAF1010AF1DC65E100000928010078
:102C700030313233343536373839616263646566F2
:102C800000000000303132333435363738394142B4
:102C9000434445460000000000F058F90544761C06
:102CA000307800287FF4ECAD19B02846BDE8F08FED
:102CB000620700D4062709F1070222F0070CFCE89E
:102CC0000223E14603F000485FEA080C02D00FF24D
:102CD000702C0DE05FEA045C02D50FF2682C07E06F
:102CE0005FEAC47C02D00FF2602C01E0AFF2700CFE
:102CF0004FF0FF3823F00043CDF850C065280CD0CA
:102D000006DC452809D046281DD047283DD13DE0A6
:102D1000662818D067287ED138E00021112F01DB0A
:102D2000112000E0781CCDE9000106A90EA8FFF7EC
:102D3000DDFCDDE90F010E9A03910021009207F1FD
:102D4000010A04914DE04FF000400097CDE90110D9
:102D500006A90EA8FFF7CAFCDDE90F0203920E9B3D
:102D600011990022DDF80CA00093049211B9791C8E
:102D700000EB010AB7EB0A0004D4C0F1FF3007F101
:102D8000010A0490AAEB0700019044E0012F00DA49
:102D900001270021112F01DD112000E03846CDE987
:102DA000000106A90EA8FFF7A1FCDDE90F010E9AAC
:102DB0000391002104910092BA4621070CD4039993
:102DC000514500DA8A46BAF1010F05DD009AAAF1F1
:102DD0000101515C302908D0B84202DA10F1040F29
:102DE00006DA0121CDE9011015E0AAF10101E9E7B8
:102DF000002805DC049901440491AAEB000102E0DB
:102E0000411C514500DD8A460499401A401C01903E
:102E10004FF000400290200704D40198504501DB98
:102E2000CDF8048000208DF84F0002980DF14F0777
:102E3000B0F1004F25D02B200E9002984FF00208E1
:102E400000280CDA404202902D200E9007E00A2163
:102E50000298FDF7AAFE3031029007F8011DB8F183
:102E60000001A8F10108F2DC02980028EFD1791ED8
:102E70000E980870307800F0200040F0450007F808
:102E8000020D12A8C01B00F107081498007800B1C9
:102E9000012000EB0A01019801EBE0710598414423
:102EA000401A401E0590E00306D45B462146179A5F
:102EB000059800F05DF805441498007818B15A465A
:102EC000179990476D1CE00324D55B462146179A5D
:102ED000059800F04DF805441CE00498002807DB35
:102EE000DDE90301884203DD0098405C179901E0A9
:102EF000179930205A469047049805F10105401C67
:102F000004900198401E019004D12E205A46179932
:102F100090476D1CBAF10001AAF1010ADDDC05E061
:102F200017F8010B5A46179990476D1CB8F100012C
:102F3000A8F10108F4DC5B462146179A0598ABE638
:102F40002D0000002B000000200000002DE9F041C2
:102F5000044600251E461746880404D405E0394679
:102F60002020B0476D1C641EF9D52846BDE8F081CD
:102F70002DE9F041044600251E469046C80301D5C0
:102F8000302700E02027880404D505E04146384674
:102F9000B0476D1C641EF9D52846BDE8F0810000DD
:102FA00013B54FF0FF33012269460248FFF70CF8D2
:102FB00000981CBDE400002088B0FEF77BFCFFF702
:102FC000ADFAFFF735FAFFF767FAFFF785FA00F079
:102FD00089F8134C134B144A206800901D2105A852
:102FE000FDF711FD114D002628780028FCD02E7029
:102FF00001A800F021F80298FDF7BFFD039004AA94
:1030000003A905A82368FDF78DF80498FDF7BAFD1C
:10301000029F02460B46394605A0FFF737FBE3E760
:10302000040000201C000020643100080000002083
:1030300025642C25660A00003EB5044600208DF864
:10304000000001226946002000F024F89DF80000ED
:103050004006F6D5062201A9072000F01BF89DF8CE
:1030600004009DF80510000440EA01209DF80610B8
:103070000843C0F3110020609DF807009DF8081078
:10308000000440EA01209DF809100843C0F3110034
:1030900060603EBD7CB514460D468DF804000A26DE
:1030A000012301AAAE2106480096FEF737FB23460E
:1030B0002A46AF2102480096FEF70EFA7CBD0000BA
:1030C000900000201CB502238DF804000A208DF822
:1030D0000510009001AAAE210148FEF71FFB1CBDA0
:1030E0009000002008B540210920FFF7EBFF0520E4
:1030F000FEF726F8E0210220FFF7E4FF022103207B
:10310000FFF7E0FF00210420FFF7DCFF002105208E
:10311000FFF7D8FF00210620FFF7D4FF0F2108207A
:10312000FFF7D0FF03210920FFF7CCFF26210A205B
:10313000FFF7C8FF2F210C20FFF7C4FF2F210D2020
:10314000FFF7C0FF01212120FFF7BCFF01226946E4
:103150000020FFF79FFF012269461046FFF79AFF04
:1031600008BD00007B34CABA6FEE10BBC55D57BB0B
:10317000450C91BB4DEE9BBB741C45BBE8AC0F3BB3
:1031800052B1423C6113D83C8D3E383D2017873DFB
:103190009BAFB13D09EDD53DD248EE3DF5DEF63DA4
:1031A000D248EE3D09EDD53D9BAFB13D2017873D9F
:1031B0008D3E383D6113D83C52B1423CE8AC0F3BE8
:1031C000741C45BB4DEE9BBB450C91BBC55D57BB0D
:1031D0006FEE10BB7B34CABA000000000000000094
:1031E00001020304060708090000000001020304AD
:1031F00010320008000000201C000000CC2600084F
:103200002C3200081C0000200C050000DC26000801
:10321000000000000100000001000000100000009C
:0C322000000000000024F400000000008A
:04000005080000ED02
:00000001FF
